S016000044656D6F5F312852656D6F7465292E737265633C
S11300000C9434000C9446000C9446000C94460066
S11300100C9446000C9446000C9446000C94460044
S11300200C9446000C9446000C9446000C94460034
S11300300C9446000C9446000C9446000C94460024
S11300400C9446000C9446000C9446000C94460014
S11300500C9446000C94A0000C9446000C944600AA
S11300600C9446000C94460011241FBECFEFD8E038
S1130070DEBFCDBF21E0A0E0B1E001C01D92A430FD
S1130080B207E1F70E9464000C94AD020C940000E6
S11300909091C00095FFFCCF8093C6000895109204
S11300A080008BE08093810084ED90E3909389003D
S11300B08093880080E005C0B19BFECF92E096BBA0
S11300C08F5F8530C8F3089588E18093C10086E08E
S11300D08093C20088E08093C4007894EAE7F0E05B
S11300E08FE8808380E480937C00808180648083B7
S11300F080910201909103018D33910524F084E6EF
S11301000E9448001AC0889724F482E60E9448009E
S113011014C080910001909101018D33910524F068
S113012081E60E94480009C0889724F483E60E946F
S1130130480003C085E60E9448000E944F00D8CFC3
S11301401F920F920FB60F9211242F933F934F9348
S11301505F936F937F938F939F93AF93BF93EF932B
S1130160FF9380917C008034F1F460917800709169
S1130170790080E090E00E94B20120E030EC4FE78B
S113018054E40E940A0120E030E048EC52E40E946A
S113019040020E947C01709303016093020181E498
S11301A080937C0021C080917C008134E9F46091CB
S11301B078007091790080E090E00E94B20120E024
S11301C030EC4FE754E40E940A0120E030E048ECB0
S11301D052E40E9440020E947C01709301016093EA
S11301E0000180E480937C00EAE7F0E08081806491
S11301F08083FF91EF91BF91AF919F918F917F91F8
S11302006F915F914F913F912F910F900FBE0F907F
S11302101F9018950E941E010C9406020E94FF0173
S113022058F00E94F80140F029F45F3F29F00C9443
S1130230EF0151110C943A020C94F5010E9417023B
S113024068F39923B1F3552391F3951B550BBB2701
S1130250AA2762177307840738F09F5F5F4F220F46
S1130260331F441FAA1FA9F335D00E2E3AF0E0E83D
S113027032D091505040E695001CCAF72BD0FE2F87
S113028029D0660F771F881FBB1F2617370748071B
S1130290AB07B0E809F0BB0B802DBF01FF279358D3
S11302A05F4F3AF09E3F510578F00C94EF010C94A7
S11302B03A025F3FE4F3983ED4F3869577956795C9
S11302C0B795F7959F5FC9F7880F911D9695879508
S11302D097F90895E1E0660F771F881FBB1F621727
S11302E073078407BA0720F0621B730B840BBA0BE5
S11302F0EE1F88F7E09508950E9483016894B11178
S11303000C943A0208950E941F0288F09F5798F0B7
S1130310B92F9927B751B0F0E1F0660F771F881F06
S1130320991F1AF0BA95C9F714C0B13091F00E9420
S11303303902B1E008950C943902672F782F882789
S1130340B85F39F0B93FCCF3869577956795B39547
S1130350D9F73EF490958095709561957F4F8F4FB6
S11303609F4F0895E89409C097FB3EF490958095BB
S1130370709561957F4F8F4F9F4F9923A9F0F92F67
S113038096E9BB279395F695879577956795B795E5
S1130390F111F8CFFAF4BB0F11F460FF1BC06F5FCB
S11303A07F4F8F4F9F4F16C0882311F096E911C0DD
S11303B0772321F09EE8872F762F05C0662371F0FE
S11303C096E8862F70E060E02AF09A95660F771F12
S11303D0881FDAF7880F9695879597F9089597F906
S11303E09F6780E870E060E008959FEF80EC0895D7
S11303F000240A9416161706180609060895002400
S11304000A9412161306140605060895092E039479
S1130410000C11F4882352F0BB0F40F4BF2B11F4ED
S113042060FF04C06F5F7F4F8F4F9F4F089557FD4C
S11304309058440F551F59F05F3F71F04795880F4E
S113044097FB991F61F09F3F79F0879508951216E5
S113045013061406551FF2CF4695F1DF08C0161691
S113046017061806991FF1CF869571056105089442
S11304700895E894BB2766277727CB0197F9089559
S11304800E9453020C9406020E94F80138F00E9464
S1130490FF0120F0952311F00C94EF010C94F50169
S11304A011240C943A020E94170270F3959FC1F331
S11304B0950F50E0551F629FF001729FBB27F00D0E
S11304C0B11D639FAA27F00DB11DAA1F649F662763
S11304D0B00DA11D661F829F2227B00DA11D621FB2
S11304E0739FB00DA11D621F839FA00D611D221F6C
S11304F0749F3327A00D611D231F849F600D211D50
S1130500822F762F6A2F11249F5750409AF0F1F0D2
S113051088234AF0EE0FFF1FBB1F661F771F881F3B
S113052091505040A9F79E3F510580F00C94EF0183
S11305300C943A025F3FE4F3983ED4F386957795A2
S11305406795B795F795E7959F5FC1F7FE2B880FE1
S1110550911D9695879597F90895F894FFCF1D
S9030000FC
